:020000040000FA
:1000000010030010152000001D2000001F2000001C
:1000100000000000000000000000000000000000E0
:10002000000000000000000000000000212000008F
:100030000000000000000000232000002520000038
:100040002720000027200000272000002720000094
:100050002720000027200000272000002720000084
:100060002720000027200000272000002720000074
:100070002720000027200000272000002720000064
:1000800027200000272000006F2300002720000009
:100090002720000027200000272000002720000044
:1000A0002720000027200000272000002720000034
:1000B0002720000027200000272000002720000024
:1000C0000000000000000000000000000000000030
:1002F000000000000000000000000000FFFFFFFF02
:020000040000FA
:102000000348854601F006F80048004729240000EF
:10201000100300100448804704480047FEE7FEE72D
:10202000FEE7FEE7FEE7FEE7C52100000120000015
:1020300010B500249348406AC005000F030001F06A
:102040000FF810090B0D0F11131517191B1D1F2168
:10205000232527298C4C1DE08C4C1BE08C4C19E06F
:102060008C4C17E08C4C15E08C4C13E08C4C11E040
:102070008C4C0FE08C4C0DE08C4C0BE08C4C09E050
:102080008C4C07E08C4C05E08C4C03E08C4C01E060
:102090008C4C00BF00BF7B48406AC006800E811C8C
:1020A000204600F099FF044676484030006B8007D8
:1020B000800F06D0012808D0022824D0032872D12E
:1020C00024E08148814908606DE06E484030006836
:1020D0008007800F06D0012808D002280AD00328E4
:1020E0000FD10AE07848794908600AE076487749D4
:1020F000086006E07548046003E00020734908604A
:1021000000BF00BF4FE0714804604CE05D484030C4
:1021100000688007800F06D0012818D002282AD036
:1021200003283ED139E057488068FF2181310842B9
:1021300003D065486549086008E052488068C006D9
:10214000C00E401C604948436049086029E04D4882
:102150008068FF218131084203D05B485B490860F9
:1021600008E048488068C006C00E401C56494843F5
:102170005649086015E043488068FF2181310842D4
:1021800002D05248046007E03E488068C006C00E96
:10219000401C60434D49086003E000204B49086043
:1021A00000BF00BF00BF00BF484800684849086042
:1021B00034484030816B4548006800F00DFF4349CA
:1021C000086010BD02212F4A11600021414A1160B0
:1021D000AA2191605521916000212A4A11623E494D
:1021E000896B202291433C4A91630021254A116268
:1021F000002001E000BF401CC828FBD30121214A78
:10220000403211605160002151600121516000BFD6
:102210001C4940314968C907C90FF9D04121194A01
:1022200091602D49896B802291432B4A916300BFB5
:102230001449C968C907C90FFAD00321114A4032AD
:10224000116301215163002151630121516300BFDA
:102250000C494031496BC907C90FF9D00121094A1E
:1022600040329163074A803251619161D16100210E
:10227000116211460968012212041143014A803299
:102280001160704700800440801A060020A10700FA
:1022900000350C00E0C81000C05C1500006A180092
:1022A00040771B0080841E00C0912100009F240005
:1022B00040AC2700E032290020402C00604D2F0068
:1022C00000D4300040E13300001BB700E0000010F4
:1022D000E40000100040004000820440014600205D
:1022E00006E0002000E0401CFF22F5329042FAD3C5
:1022F0000A46491E002AF4D1704770B504462046AC
:1023000000F006FE06460E203040054600206A49D1
:1023100008700C20054229D0042D02D00C2D23D1A9
:102320000BE0012065490870831E08226449654856
:1023300000F058FD6049087017E001205F490870FF
:102340000DE05F485C4A1278811801231A465D4807
:1023500000F048FD58480078401C574908706069F3
:10236000C007C00FEDD100E000BF00BF70BD10B5C9
:102370005448FFF7C2FF10BD00B589B001A800F0B6
:10238000DBFA51496846818001A800F025FA4E49E0
:1023900040316846818001A800F01EFA0021042027
:1023A00000F04FF90121080300F00BF9012000F0C3
:1023B0006CF9444800F07FFB06A9424800F076FC27
:1023C000E1204002069006A93E4800F0CBFB012127
:1023D0003C4800F086FC012211463A4800F053FDCB
:1023E000122001218140394A116000BF09B000BDAF
:1023F00001B50023DB4301226946324800F08BFC23
:1024000000BF304800F02EFD40210842F9D008BD41
:1024100070B504460D4604E02078641CFFF7E8FF21
:102420006D1E002DF8D170BD0EB50A25FFF7A4FF73
:1024300018E027A4204600F0E5FD0646324625A117
:10244000684600F0F9FD03216846FFF7E1FF00232D
:10245000DB43324621461B4800F05DFC6420FFF759
:102460003DFF6D1E002DE4D102211BA0FFF7D0FF20
:1024700000221AA1684600F0DFFD05216846FFF73B
:10248000C7FF022114A0FFF7C3FF102115A0FFF71B
:10249000BFFF0120FFF722FF0BE00848007801286A
:1024A00007D1002005490870034801780448FFF768
:1024B000AFFFF2E700BFFEE7E9000010E800001000
:1024C000EC000010008000408204000000E100E009
:1024D00061626300256420000D0A000055415254DA
:1024E00025640000636865636B20776179207465FB
:1024F00073740D0A00000000B348006BC006C00EE4
:1025000070478007800FB049086070478007800FD0
:10251000AD49403108600121AB4A40325160002191
:1025200051600121516000BFA74940314968C90786
:10253000C90FF9D0704770B50446202C01D8002C83
:1025400000D170BD022905D1042903D1082901D188
:10255000102900D0F5E78808042800D1401E1D028C
:10256000D601354346013543661E35432846964D10
:10257000A860964DAD6B8026B543944EB56300BF01
:10258000914DED68ED07ED0FFAD000BFD9E7800758
:10259000800F8D494031086301218B4A40325163DD
:1025A000002151630121516300BF87494031496BCC
:1025B000C907C90FF9D07047C0B283494031886359
:1025C0007047002907D0804A8032126802437E4B50
:1025D00080331A6006E07C4A8032126882437A4B6C
:1025E00080331A6070474208202A00D970470F29AB
:1025F00000D9FBE74A0143085B1E1A43724B5A623B
:10260000724A926B40239A43704B9A6300BFEDE786
:102610008007800FC9B26C4AC032106201226A4B37
:10262000C0335A6200225A6201225A6200BF664ACF
:10263000C032526AD207D20FF9D0634AC0329162D7
:102640007047012905D1604A526882435E4B5A6047
:1026500004E05D4A526802435B4B5A6070470128B0
:1026600006D159494968C2031143574A516006E0EF
:10267000554949680122D2039143534A516070473A
:10268000C1B2514A803251617047C1B24E4A803264
:1026900091617047C1B24C4A8032D1617047C1B27A
:1026A0004A4AC03AD1607047C1B2484AC03A9160C4
:1026B0007047C1B2454AC03A51607047C1B2434AFF
:1026C000C03A11607047C1B2414AD1637047C1B28C
:1026D0003F4A91637047C1B23D4A51637047012937
:1026E00005D13A4A126B0243384B1A6304E0374A69
:1026F000126B8243354B1A637047012905D1334A67
:10270000926B0243314B9A6304E0304A926B8243EE
:102710002E4B9A637047012905D12C4A526B024314
:102720002A4B5A6304E0294A526B8243274B5A636F
:1027300070472749403148637047002905D0234A34
:1027400052680243214B5A6004E0204A5268824397
:102750001E4B5A607047002905D01C4A126802437C
:102760001A4B1A6004E0194A12688243174B1A6028
:102770007047164989680143144A916070470029DF
:1027800005D0124A52690243104B5A6104E00F4AC5
:10279000526982430D4B5A617047002905D00B4A9C
:1027A00012690243094B1A6104E0084A1269824324
:1027B000064B1A617047054989690143034A9161D3
:1027C00070470448406B704700800440008204401A
:1027D00000810440C0830440F8B504465E48009080
:1027E00020880011EC2805DC20780007000F06285F
:1027F00000DC03E03F2159A0FFF75CFEA078002831
:1028000002D0A078102800D103E0402153A0FFF7A8
:1028100051FE6089002804D06089012109038842A3
:1028200000D103E041214DA0FFF744FE20790028AC
:1028300002D02079802800D103E0422147A0FFF791
:1028400039FE2089002804D020890121890288428C
:1028500000D103E0432141A0FFF72CFEE0780028DF
:1028600002D0E078402800D103E044213BA0FFF7EC
:1028700021FEA08900280DD0A089012149038842AA
:1028800008D0A0894900884204D0A08903214903C7
:10289000884200D103E0452130A0FFF70BFE2069FC
:1028A00000281CD00121C9032069884217D04900A3
:1028B0002069884213D00321C903206988420ED0C1
:1028C000012149042069884209D00521C9032069F2
:1028D000884204D0032109042069884200D103E022
:1028E00046211EA0FFF7E6FD208885112078060707
:1028F000360F242D01D0252D0BD1E08830432189BE
:102900000843E1780843A189084321690843074641
:102910000EE0A0783043618908432179084321897A
:102920000843E1780843A189084321690843074621
:10293000A90000984750F8BD002101801021817046
:102940000021C170C180018141818021017100217C
:102950008181016170470000004004402E2E5C53CD
:102960006F757263655C4C6962726172795C736FDA
:10297000757263655C6C7063313278785F696F6320
:102980006F6E2E63000000000146FB48814201D1BA
:10299000002070470120FCE7F0B58BB004460D46DF
:1029A00000200A9009900890079006900120059059
:1029B000002004900390029068090190EE48844240
:1029C00008D1EE488169EE48006800F005FB000977
:1029D00009900AE0EB48844207D1E848C169E84819
:1029E000006800F0F9FA0009099000263EE0771C23
:1029F00039E0B919099A7A43104600F0EDFA0790C8
:102A00002946079800F0E8FA06902946079800F052
:102A1000E3FA6808814202D90698401C069006989D
:102A200002281FD901210904069888421AD2069962
:102A3000079800F0D1FA08900898A84203D808989F
:102A4000281A029002E00898401B0290019902980F
:102A5000884207D205970496069803900298019041
:102A600001200A907F1C0F2FC3D9761C0F2EBED3D6
:102A70000A9801281CD1E06880210843E06013E037
:102A80000398C0B2206003980004000E6060E06804
:102A90004006400EE06005980001F02108400499CE
:102AA0000907090F0843A062E06880210842E7D1C6
:102AB0000A980BB0F0BD38B50446AF48844202D046
:102AC000B048844200D103E0E021AFA0FFF7F2FC60
:102AD0001020A0620720A06001E0206800906069DB
:102AE000C007C00FF9D18020206300BF606920219A
:102AF0000842FBD0002020636060E06020626069D3
:102B000000902046FFF740FF009000210C22009823
:102B10005043A74A115003210C2200985043A44A65
:102B20008018017100210C2200985043A04A80189F
:102B300041710C22009850439D4A801881710C22EB
:102B4000009850439A4A8018C1710C220098504353
:102B5000974A801801720C2200985043944A8018BA
:102B6000417238BD70B506460C468348864202D095
:102B70008448864200D104E0FF21203182A0FFF783
:102B800099FC2079002808D02079012805D02079E7
:102B9000022802D02079032800D104E0FF2121314E
:102BA00079A0FFF787FCA07900280BD0A07908282E
:102BB00008D0A079182805D0A079282802D0A079BB
:102BC000382800D104E0FF2122316FA0FFF772FC0A
:102BD0006079002802D06079042800D104E0FF2148
:102BE000233169A0FFF766FCE079002808D0E0797E
:102BF000402805D0E079802802D0E079C02800D1B3
:102C000004E0FF21243160A0FFF754FC207A002863
:102C100002D0207A082800D104E0FF2125315AA0F3
:102C2000FFF748FC3046FFF7AFFE05460C2068432F
:102C30005F4908582168884208D030462168FFF76C
:102C4000ABFE0C2068435A4A216811502079A179C3
:102C5000084361790843617A0843F060207A0121D2
:102C60000843E1790843CF210840B06021790C2066
:102C700068434F4A8018017161790C2068438018BD
:102C80004171A1790C20684380188171617A0C2010
:102C9000684380184172E1790C2068438018C17143
:102CA000217A0C2068438018017270BD70B504460B
:102CB0000E463148844202D03248844200D104E0BA
:102CC000FF214B3130A0FFF7F5FB2046FFF75CFEFC
:102CD00005460C2068433649421807CA334607C3E5
:102CE00070BD70B504460D462348844202D0254885
:102CF000844200D104E0FF215A3123A0FFF7DAFB20
:102D0000012D04D1206B80210843206302E0206B59
:102D10000020206370BDFFB583B004461D460498B3
:102D200000901548844202D01648844200D104E045
:102D3000FF21713114A0FFF7BDFB681C01D0012DEC
:102D400000D104E0FF2172310FA0FFF7B3FB059E15
:102D5000002741E0029506E00298002800D106E035
:102D60000298401E0290606920210842F4D000BF02
:102D7000029800281ED131E000800040808004408D
:102D8000E400001000C000402E2E5C536F7572638B
:102D9000655C4C6962726172795C736F75726365B0
:102DA0005C6C7063313278785F756172742E630089
:102DB000F80000101020019009E000980178401CF4
:102DC000009021600198401E0190761E7F1C0198A2
:102DD000002801D0002EF0D1002EBBD100BF384614
:102DE00007B0F0BDFFB583B004461D4604980190BE
:102DF0007548844202D07548844200D104E0FF2126
:102E000099317348FFF756FB681C01D0012D00D1A2
:102E100004E0FF219A316E48FFF74CFB059E002726
:102E20001AE0029506E00298002800D106E0029818
:102E3000401E02906069C007C00FF4D000BF029826
:102E4000002800D10AE02068C1B201980170019801
:102E5000401C0190761E7F1C002EE2D100BF384638
:102E600007B0F0BD10B504465748844202D0574819
:102E7000844200D104E0FF21BD315548FFF71AFB21
:102E80006069C0B210BDF8B505460C4616464E48FE
:102E9000854202D04D48854200D104E0FF21CF3168
:102EA0004B48FFF707FB012C0DD0022C0BD0042C54
:102EB00009D0082C07D0802C05D0E01FF93802D0AB
:102EC000FF38013800D104E0FF21D0314048FFF73E
:102ED000F1FA002E01D0012E00D104E0FF21D13102
:102EE0003B48FFF7E7FA012E03D16868204368608A
:102EF0000DE0384F2846FFF747FD002801D1354F38
:102F0000883768683946A1430840686000BFF8BD4B
:102F100010B504462C48844202D02C48844200D18B
:102F200004E0FF21EC312A48FFF7C4FAA0682949E0
:102F3000C831084010BD70B504460D4616462248FB
:102F4000844202D02148844200D104E0FF21FA31BA
:102F50001F48FFF7AFFA002D01D0022D00D104E089
:102F6000FF21FB311A48FFF7A5FA002E01D0042EED
:102F700000D104E0FF21FC311548FFF79BFAE0681F
:102F800080210843E060002020606060E0688843A2
:102F9000E0601020A06228460121084330432062EF
:102FA00070BD10B504460848844202D007488442E8
:102FB00000D104E00749F6390548FFF77BFA032002
:102FC0000002206210BD00000080004000C00040F0
:102FD000882D00000703000030B50B460146002095
:102FE0002022012409E00D46D5409D4205D31D460F
:102FF0009540491B2546954040191546521E002D07
:10300000F1DC30BD421C0178401C0029FBD1801A44
:1030100070470000064C0125064E05E02046E36897
:1030200007C82B4398471034B442F7D3FEF7ECFFA0
:10303000F4310000143200000FB410B504A9074B9E
:1030400002AA039800F02AF8044602A9002000F022
:10305000CBF8204610BC08BC04B01847E93100008A
:1030600030B47446641E2578641CAB4204D3635D9F
:103070005B00E31830BC18471D46F8E702E008C8BB
:10308000121F08C1002AFAD170477047002001E0E2
:1030900001C1121F002AFBD170470000FFB58DB09F
:1030A0000446002596E0252832D10027641C4D4AAD
:1030B0000121009723780846203B9840034613429D
:1030C00002D00743641CF5E720782E2817D104208E
:1030D0000743641C20782A280CD10E98641C02C86F
:1030E00000910E900BE000990A22514330394018AC
:1030F000641C00902078014630390929F3D92078E2
:1031000000286BD0642808D0692806D075281ED006
:10311000109A0F9990476D1C5BE00A200E99019060
:1031200001C90E91002802DA40422D2102E0390542
:1031300004D52B216A461172012103E0F90704D05E
:103140002021F7E70BAE0B910DE00021FAE70A20F2
:103150000E99019001C90E91F7E70199FFF73CFF25
:103160003031761E31700028F7D103A8801B203043
:103170000190780701D5009801E0012000900199A5
:10318000884201DD401A00E000200027009006E0A0
:1031900002A8109AC05D0F9990476D1C7F1C0B9878
:1031A0008742F5DB04E0109A30200F9990476D1CA0
:1031B0000099481E00900029F5DC05E03078109A4F
:1031C000761C0F9990476D1C0199481E01900029AB
:1031D000F4DC641C2078002800D064E7284611B095
:1031E000F0BD0000092801000A68531C0B60107034
:1031F0007047000014320000E00000100C000000D6
:103200007C30000020320000EC000010240200009E
:103210008C30000000366E0100366E0100000000A8
:0400000500002001D6
:00000001FF
